{
  "contractName": "DeviceHub",
  "abi": [
    {
      "inputs": [],
      "stateMutability": "payable",
      "type": "constructor",
      "payable": true
    },
    {
      "anonymous": false,
      "inputs": [
        {
          "indexed": false,
          "internalType": "address",
          "name": "_to",
          "type": "address"
        },
        {
          "indexed": false,
          "internalType": "string",
          "name": "_deviceID",
          "type": "string"
        },
        {
          "indexed": false,
          "internalType": "uint256",
          "name": "date",
          "type": "uint256"
        }
      ],
      "name": "DeviceLoaned",
      "type": "event"
    },
    {
      "anonymous": false,
      "inputs": [
        {
          "indexed": false,
          "internalType": "address",
          "name": "_newDevice",
          "type": "address"
        },
        {
          "indexed": false,
          "internalType": "string",
          "name": "_ID",
          "type": "string"
        }
      ],
      "name": "DeviceRegistered",
      "type": "event"
    },
    {
      "anonymous": false,
      "inputs": [
        {
          "indexed": false,
          "internalType": "address",
          "name": "_holder",
          "type": "address"
        },
        {
          "indexed": false,
          "internalType": "string",
          "name": "_Id",
          "type": "string"
        }
      ],
      "name": "DeviceReturned",
      "type": "event"
    },
    {
      "anonymous": false,
      "inputs": [
        {
          "indexed": false,
          "internalType": "uint256",
          "name": "_value",
          "type": "uint256"
        }
      ],
      "name": "PaymentCollected",
      "type": "event"
    },
    {
      "anonymous": false,
      "inputs": [
        {
          "indexed": false,
          "internalType": "uint256",
          "name": "_amount",
          "type": "uint256"
        }
      ],
      "name": "PenaltyIncurred",
      "type": "event"
    },
    {
      "stateMutability": "payable",
      "type": "fallback",
      "payable": true
    },
    {
      "stateMutability": "payable",
      "type": "receive",
      "payable": true
    },
    {
      "inputs": [
        {
          "internalType": "string",
          "name": "_devID",
          "type": "string"
        },
        {
          "internalType": "string",
          "name": "_url",
          "type": "string"
        },
        {
          "internalType": "address",
          "name": "_devAddress",
          "type": "address"
        }
      ],
      "name": "registerDevice",
      "outputs": [],
      "stateMutability": "nonpayable",
      "type": "function"
    },
    {
      "inputs": [],
      "name": "getDeviceCount",
      "outputs": [
        {
          "internalType": "uint256",
          "name": "count",
          "type": "uint256"
        }
      ],
      "stateMutability": "view",
      "type": "function",
      "constant": true
    },
    {
      "inputs": [
        {
          "internalType": "uint256",
          "name": "_index",
          "type": "uint256"
        }
      ],
      "name": "getStashedDevice",
      "outputs": [
        {
          "components": [
            {
              "internalType": "string",
              "name": "deviceID",
              "type": "string"
            },
            {
              "internalType": "string",
              "name": "deviceURL",
              "type": "string"
            },
            {
              "internalType": "address",
              "name": "deviceAddress",
              "type": "address"
            },
            {
              "internalType": "address",
              "name": "deviceOwner",
              "type": "address"
            },
            {
              "internalType": "uint256",
              "name": "collateral",
              "type": "uint256"
            },
            {
              "internalType": "enum DeviceHub.OwnershipState",
              "name": "state",
              "type": "uint8"
            },
            {
              "internalType": "uint256",
              "name": "loanPeriod",
              "type": "uint256"
            }
          ],
          "internalType": "struct DeviceHub.Device",
          "name": "_registeredDevice",
          "type": "tuple"
        }
      ],
      "stateMutability": "view",
      "type": "function",
      "constant": true
    },
    {
      "inputs": [
        {
          "internalType": "uint256",
          "name": "amount",
          "type": "uint256"
        },
        {
          "internalType": "uint256",
          "name": "loanDuration",
          "type": "uint256"
        }
      ],
      "name": "requestDeviceLoan",
      "outputs": [],
      "stateMutability": "nonpayable",
      "type": "function"
    },
    {
      "inputs": [
        {
          "internalType": "address",
          "name": "loaneeAddress",
          "type": "address"
        }
      ],
      "name": "redeemDeviceLoan",
      "outputs": [],
      "stateMutability": "nonpayable",
      "type": "function"
    }
  ],
  "bytecode": "0x6080604052336000806101000a81548173ffffffffffffffffffffffffffffffffffffffff021916908373ffffffffffffffffffffffffffffffffffffffff16021790555066071afd498d0000600181905550611503806100616000396000f3fe60806040526004361061004e5760003560e01c8063031f585e1461005757806337a0701a146100805780638f8d7ae6146100ab578063a8becf45146100e8578063ea4c16191461011157610055565b3661005557005b005b34801561006357600080fd5b5061007e60048036038101906100799190610dd6565b61013a565b005b34801561008c57600080fd5b506100956104e1565b6040516100a29190611162565b60405180910390f35b3480156100b757600080fd5b506100d260048036038101906100cd9190610e7e565b6104ee565b6040516100df9190611140565b60405180910390f35b3480156100f457600080fd5b5061010f600480360381019061010a9190610ea7565b6107c1565b005b34801561011d57600080fd5b5061013860048036038101906101339190610dff565b6108c9565b005b60005b6101456104e1565b8110156104dd576000610157826104ee565b90508273ffffffffffffffffffffffffffffffffffffffff16816060015173ffffffffffffffffffffffffffffffffffffffff1614801561019c5750428160c0015110155b15610304577f0d98ab1f71c202f5d71e309e183d41f7c79b8fe5ab19916f5715229204e1435b8382600001516040516101d69291906110b2565b60405180910390a16000808473ffffffffffffffffffffffffffffffffffffffff1683608001516040516102099061109d565b60006040518083038185875af1925050503d8060008114610246576040519150601f19603f3d011682016040523d82523d6000602084013e61024b565b606091505b509150915081610290576040517f08c379a000000000000000000000000000000000000000000000000000000000815260040161028790611120565b60405180910390fd5b6102bf8360008060008054906101000a900473ffffffffffffffffffffffffffffffffffffffff166000610b31565b7f0d98ab1f71c202f5d71e309e183d41f7c79b8fe5ab19916f5715229204e1435b8584600001516040516102f49291906110b2565b60405180910390a15050506104dd565b8273ffffffffffffffffffffffffffffffffffffffff16816060015173ffffffffffffffffffffffffffffffffffffffff161480156103545750610e108160c001516103509190611216565b4210155b156104c9576000600154826080015161036d919061126c565b90507fe356ab5b0afe87de41fc9a53efafd30d50777becb8df3ef4714ce7b03a8c4f2d8160405161039e9190611162565b60405180910390a16000808573ffffffffffffffffffffffffffffffffffffffff16836040516103cd9061109d565b60006040518083038185875af1925050503d806000811461040a576040519150601f19603f3d011682016040523d82523d6000602084013e61040f565b606091505b509150915081610454576040517f08c379a000000000000000000000000000000000000000000000000000000000815260040161044b90611120565b60405180910390fd5b6104838460008060008054906101000a900473ffffffffffffffffffffffffffffffffffffffff166000610b31565b7f0d98ab1f71c202f5d71e309e183d41f7c79b8fe5ab19916f5715229204e1435b8685600001516040516104b89291906110b2565b60405180910390a1505050506104dd565b5080806104d590611375565b91505061013d565b5050565b6000600280549050905090565b6104f6610c00565b600060028381548110610532577f4e487b7100000000000000000000000000000000000000000000000000000000600052603260045260246000fd5b90600052602060002090600702019050806040518060e001604052908160008201805461055e90611343565b80601f016020809104026020016040519081016040528092919081815260200182805461058a90611343565b80156105d75780601f106105ac576101008083540402835291602001916105d7565b820191906000526020600020905b8154815290600101906020018083116105ba57829003601f168201915b505050505081526020016001820180546105f090611343565b80601f016020809104026020016040519081016040528092919081815260200182805461061c90611343565b80156106695780601f1061063e57610100808354040283529160200191610669565b820191906000526020600020905b81548152906001019060200180831161064c57829003601f168201915b505050505081526020016002820160009054906101000a900473ffffffffffffffffffffffffffffffffffffffff1673ffffffffffffffffffffffffffffffffffffffff1673ffffffffffffffffffffffffffffffffffffffff1681526020016003820160009054906101000a900473ffffffffffffffffffffffffffffffffffffffff1673ffffffffffffffffffffffffffffffffffffffff1673ffffffffffffffffffffffffffffffffffffffff168152602001600482015481526020016005820160009054906101000a900460ff166001811115610773577f4e487b7100000000000000000000000000000000000000000000000000000000600052602160045260246000fd5b60018111156107ab577f4e487b7100000000000000000000000000000000000000000000000000000000600052602160045260246000fd5b8152602001600682015481525050915050919050565b60005b6107cc6104e1565b8110156108c45760006107de826104ee565b90506000600181111561081a577f4e487b7100000000000000000000000000000000000000000000000000000000600052602160045260246000fd5b8160a001516001811115610857577f4e487b7100000000000000000000000000000000000000000000000000000000600052602160045260246000fd5b14156108b05761086b816001863387610b31565b7f705a7c3c1d6e13f09a35d2cbabd8ff88b64700488e70e71c00523076874b6751338260000151426040516108a2939291906110e2565b60405180910390a1506108c4565b5080806108bc90611375565b9150506107c4565b505050565b60008060006040518060e001604052808781526020018681526020018573ffffffffffffffffffffffffffffffffffffffff16815260200160008054906101000a900473ffffffffffffffffffffffffffffffffffffffff1673ffffffffffffffffffffffffffffffffffffffff16815260200184815260200183600181111561097c577f4e487b7100000000000000000000000000000000000000000000000000000000600052602160045260246000fd5b815260200160008152509050600281908060018154018082558091505060019003906000526020600020906007020160009091909190915060008201518160000190805190602001906109d0929190610ca1565b5060208201518160010190805190602001906109ed929190610ca1565b5060408201518160020160006101000a81548173ffffffffffffffffffffffffffffffffffffffff021916908373ffffffffffffffffffffffffffffffffffffffff16021790555060608201518160030160006101000a81548173ffffffffffffffffffffffffffffffffffffffff021916908373ffffffffffffffffffffffffffffffffffffffff1602179055506080820151816004015560a08201518160050160006101000a81548160ff02191690836001811115610ad7577f4e487b7100000000000000000000000000000000000000000000000000000000600052602160045260246000fd5b021790555060c0820151816006015550507f40ee62d3a0cf66ef791a7a1f9d6d563ec877b394b8f5c097b6238ac82a68c0e281604001518260000151604051610b219291906110b2565b60405180910390a1505050505050565b838560a001906001811115610b6f577f4e487b7100000000000000000000000000000000000000000000000000000000600052602160045260246000fd5b90816001811115610ba9577f4e487b7100000000000000000000000000000000000000000000000000000000600052602160045260246000fd5b815250508285608001818152505081856060019073ffffffffffffffffffffffffffffffffffffffff16908173ffffffffffffffffffffffffffffffffffffffff1681525050808560c00181815250505050505050565b6040518060e001604052806060815260200160608152602001600073ffffffffffffffffffffffffffffffffffffffff168152602001600073ffffffffffffffffffffffffffffffffffffffff1681526020016000815260200160006001811115610c94577f4e487b7100000000000000000000000000000000000000000000000000000000600052602160045260246000fd5b8152602001600081525090565b828054610cad90611343565b90600052602060002090601f016020900481019282610ccf5760008555610d16565b82601f10610ce857805160ff1916838001178555610d16565b82800160010185558215610d16579182015b82811115610d15578251825591602001919060010190610cfa565b5b509050610d239190610d27565b5090565b5b80821115610d40576000816000905550600101610d28565b5090565b6000610d57610d52846111ae565b61117d565b905082815260208101848484011115610d6f57600080fd5b610d7a848285611301565b509392505050565b600081359050610d918161149f565b92915050565b600082601f830112610da857600080fd5b8135610db8848260208601610d44565b91505092915050565b600081359050610dd0816114b6565b92915050565b600060208284031215610de857600080fd5b6000610df684828501610d82565b91505092915050565b600080600060608486031215610e1457600080fd5b600084013567ffffffffffffffff811115610e2e57600080fd5b610e3a86828701610d97565b935050602084013567ffffffffffffffff811115610e5757600080fd5b610e6386828701610d97565b9250506040610e7486828701610d82565b9150509250925092565b600060208284031215610e9057600080fd5b6000610e9e84828501610dc1565b91505092915050565b60008060408385031215610eba57600080fd5b6000610ec885828601610dc1565b9250506020610ed985828601610dc1565b9150509250929050565b610eec816112a0565b82525050565b610efb816112a0565b82525050565b610f0a816112ef565b82525050565b6000610f1b826111de565b610f2581856111f4565b9350610f35818560208601611310565b610f3e8161147a565b840191505092915050565b6000610f54826111de565b610f5e8185611205565b9350610f6e818560208601611310565b610f778161147a565b840191505092915050565b6000610f8f601483611205565b91507f4661696c656420746f2073656e642045746865720000000000000000000000006000830152602082019050919050565b6000610fcf6000836111e9565b9150600082019050919050565b600060e0830160008301518482036000860152610ff98282610f10565b915050602083015184820360208601526110138282610f10565b91505060408301516110286040860182610ee3565b50606083015161103b6060860182610ee3565b50608083015161104e608086018261107f565b5060a083015161106160a0860182610f01565b5060c083015161107460c086018261107f565b508091505092915050565b611088816112e5565b82525050565b611097816112e5565b82525050565b60006110a882610fc2565b9150819050919050565b60006040820190506110c76000830185610ef2565b81810360208301526110d98184610f49565b90509392505050565b60006060820190506110f76000830186610ef2565b81810360208301526111098185610f49565b9050611118604083018461108e565b949350505050565b6000602082019050818103600083015261113981610f82565b9050919050565b6000602082019050818103600083015261115a8184610fdc565b905092915050565b6000602082019050611177600083018461108e565b92915050565b6000604051905081810181811067ffffffffffffffff821117156111a4576111a361144b565b5b8060405250919050565b600067ffffffffffffffff8211156111c9576111c861144b565b5b601f19601f8301169050602081019050919050565b600081519050919050565b600081905092915050565b600082825260208201905092915050565b600082825260208201905092915050565b6000611221826112e5565b915061122c836112e5565b9250827fffffffffffffffffffffffffffffffffffffffffffffffffffffffffffffffff03821115611261576112606113be565b5b828201905092915050565b6000611277826112e5565b9150611282836112e5565b925082821015611295576112946113be565b5b828203905092915050565b60006112ab826112c5565b9050919050565b60008190506112c08261148b565b919050565b600073ffffffffffffffffffffffffffffffffffffffff82169050919050565b6000819050919050565b60006112fa826112b2565b9050919050565b82818337600083830152505050565b60005b8381101561132e578082015181840152602081019050611313565b8381111561133d576000848401525b50505050565b6000600282049050600182168061135b57607f821691505b6020821081141561136f5761136e61141c565b5b50919050565b6000611380826112e5565b91507fffffffffffffffffffffffffffffffffffffffffffffffffffffffffffffffff8214156113b3576113b26113be565b5b600182019050919050565b7f4e487b7100000000000000000000000000000000000000000000000000000000600052601160045260246000fd5b7f4e487b7100000000000000000000000000000000000000000000000000000000600052602160045260246000fd5b7f4e487b7100000000000000000000000000000000000000000000000000000000600052602260045260246000fd5b7f4e487b7100000000000000000000000000000000000000000000000000000000600052604160045260246000fd5b6000601f19601f8301169050919050565b6002811061149c5761149b6113ed565b5b50565b6114a8816112a0565b81146114b357600080fd5b50565b6114bf816112e5565b81146114ca57600080fd5b5056fea264697066735822122049cd28c52e8403217514ca21d7a0f93de9c48454347c4e11782a107396fa6f7964736f6c63430008000033",
  "immutableReferences": {},
  "source": "// SPDX-License-Identifier: MIT\r\n\r\npragma solidity ^0.8.0;\r\n\r\n/**\r\n * Manage the creation and storage of devices.\r\n */\r\n\r\ncontract DeviceHub {\r\n\r\n    // Device ownership lifecycle\r\n    enum OwnershipState{STASHED, LOANED}\r\n\r\n    address private admin;\r\n   \r\n    event DeviceRegistered(address _newDevice, string _ID);\r\n    event DeviceLoaned(address _to,string _deviceID, uint date);\r\n    event PaymentCollected(uint _value);\r\n    event DeviceReturned(address _holder, string _Id);\r\n    event PenaltyIncurred(uint _amount);\r\n\r\n    uint256 private LATE_FEE;\r\n  \r\n    struct Device {\r\n        string  deviceID;\r\n        string  deviceURL;\r\n        address deviceAddress;\r\n        address deviceOwner;\r\n        uint collateral;\r\n        OwnershipState state;\r\n        uint loanPeriod;    \r\n    }\r\n\r\n    // Device storage\r\n    Device[] private deviceStash;\r\n\r\n    constructor() payable {\r\n        admin = msg.sender;\r\n        LATE_FEE = 0.002 ether;\r\n\r\n    }\r\n\r\n    // Function to receive Ether. msg.data must be empty\r\n    receive() external payable {}\r\n\r\n    // Fallback function is called when msg.data is not empty\r\n    fallback() external payable {}\r\n\r\n    function registerDevice(string memory _devID, string memory _url, address _devAddress) external {\r\n        uint eth = 0;\r\n        OwnershipState status = OwnershipState.STASHED;\r\n        Device memory newDevice = Device( _devID,_url,_devAddress,admin, eth,status,0);\r\n        deviceStash.push(newDevice);\r\n        emit DeviceRegistered(newDevice.deviceAddress,newDevice.deviceID);\r\n    }\r\n\r\n    function getDeviceCount() public view returns(uint count){\r\n        return deviceStash.length;\r\n    \r\n    }\r\n    function getStashedDevice(uint _index) public view returns(Device memory _registeredDevice){\r\n        \r\n        Device storage grabDevice = deviceStash[_index];\r\n        return grabDevice;\r\n    }\r\n \r\n    // function to update the device properties for the devices stored in the contract.\r\n    function requestDeviceLoan(uint amount, uint loanDuration) external {\r\n          for(uint j = 0; j < getDeviceCount(); j++){\r\n                Device memory _device = getStashedDevice(j);\r\n                if(_device.state == OwnershipState.STASHED){\r\n\r\n                    setDeviceSatus(_device, OwnershipState.LOANED ,amount ,msg.sender, loanDuration);\r\n                    emit DeviceLoaned(msg.sender, _device.deviceID, block.timestamp);\r\n                    break;\r\n                }\r\n          }\r\n    }\r\n    // function to update the device properties for the devices stored in the contract.\r\n    function redeemDeviceLoan(address loaneeAddress) external {\r\n\r\n          for(uint j = 0; j < getDeviceCount(); j++){\r\n                Device memory _device = getStashedDevice(j);\r\n                if(_device.deviceOwner == loaneeAddress && _device.loanPeriod >= block.timestamp){\r\n                    \r\n                    emit DeviceReturned(loaneeAddress,_device.deviceID);\r\n\r\n                    (bool sent, bytes memory data) = loaneeAddress.call{value: _device.collateral}(\"\");\r\n                    require(sent, \"Failed to send Ether\");\r\n\r\n                    setDeviceSatus(_device, OwnershipState.STASHED, 0, admin,0); \r\n                    emit DeviceReturned(loaneeAddress,_device.deviceID);     \r\n                    break;\r\n                }\r\n                if(_device.deviceOwner == loaneeAddress && block.timestamp >= (_device.loanPeriod + 3600)){\r\n                    uint penalty = _device.collateral - LATE_FEE;\r\n\r\n                    emit PenaltyIncurred(penalty);\r\n\r\n                    (bool sent, bytes memory data) = loaneeAddress.call{value: penalty}(\"\");\r\n                    require(sent, \"Failed to send Ether\");\r\n\r\n                    setDeviceSatus(_device, OwnershipState.STASHED, 0, admin,0); \r\n                    emit DeviceReturned(loaneeAddress,_device.deviceID);     \r\n                    break;\r\n                }\r\n            }\r\n       \r\n    }\r\n\r\n\r\n    function setDeviceSatus(Device memory _d, OwnershipState isLoaned ,uint ethValue, address newOwner , uint duration)  internal pure {\r\n\r\n         _d.state = isLoaned;\r\n         _d.collateral = ethValue;\r\n         _d.deviceOwner = newOwner;\r\n         _d.loanPeriod = duration;\r\n        \r\n    }\r\n  \r\n  \r\n}\r\n\r\n\r\n",
  "sourcePath": "C:/Users/JJsse/Documents/HOME DIRECTORY/Portfolio-Projects/NFT-IoT Platform/backend/contracts/DeviceHub.sol",
  "compiler": {
    "name": "solc",
    "version": "0.8.0+commit.c7dfd78e.Emscripten.clang"
  },
  "schemaVersion": "3.3.4",
  "updatedAt": "2022-01-05T17:47:25.528Z",
  "networkType": "ethereum",
  "devdoc": {
    "kind": "dev",
    "methods": {},
    "version": 1
  },
  "userdoc": {
    "kind": "user",
    "methods": {},
    "notice": "Manage the creation and storage of devices.",
    "version": 1
  }
}