{
  "contractName": "DeviceTag",
  "abi": [
    {
      "inputs": [
        {
          "internalType": "contract DeviceHub",
          "name": "_devices",
          "type": "address"
        }
      ],
      "stateMutability": "nonpayable",
      "type": "constructor"
    },
    {
      "anonymous": false,
      "inputs": [
        {
          "indexed": true,
          "internalType": "address",
          "name": "owner",
          "type": "address"
        },
        {
          "indexed": true,
          "internalType": "address",
          "name": "approved",
          "type": "address"
        },
        {
          "indexed": true,
          "internalType": "uint256",
          "name": "tokenId",
          "type": "uint256"
        }
      ],
      "name": "Approval",
      "type": "event"
    },
    {
      "anonymous": false,
      "inputs": [
        {
          "indexed": true,
          "internalType": "address",
          "name": "owner",
          "type": "address"
        },
        {
          "indexed": true,
          "internalType": "address",
          "name": "operator",
          "type": "address"
        },
        {
          "indexed": false,
          "internalType": "bool",
          "name": "approved",
          "type": "bool"
        }
      ],
      "name": "ApprovalForAll",
      "type": "event"
    },
    {
      "anonymous": false,
      "inputs": [
        {
          "indexed": true,
          "internalType": "address",
          "name": "from",
          "type": "address"
        },
        {
          "indexed": true,
          "internalType": "address",
          "name": "to",
          "type": "address"
        },
        {
          "indexed": true,
          "internalType": "uint256",
          "name": "tokenId",
          "type": "uint256"
        }
      ],
      "name": "Transfer",
      "type": "event"
    },
    {
      "inputs": [],
      "name": "LoanCount",
      "outputs": [
        {
          "internalType": "uint256",
          "name": "",
          "type": "uint256"
        }
      ],
      "stateMutability": "view",
      "type": "function",
      "constant": true
    },
    {
      "inputs": [
        {
          "internalType": "address",
          "name": "to",
          "type": "address"
        },
        {
          "internalType": "uint256",
          "name": "tokenId",
          "type": "uint256"
        }
      ],
      "name": "approve",
      "outputs": [],
      "stateMutability": "nonpayable",
      "type": "function"
    },
    {
      "inputs": [
        {
          "internalType": "address",
          "name": "owner",
          "type": "address"
        }
      ],
      "name": "balanceOf",
      "outputs": [
        {
          "internalType": "uint256",
          "name": "",
          "type": "uint256"
        }
      ],
      "stateMutability": "view",
      "type": "function",
      "constant": true
    },
    {
      "inputs": [],
      "name": "devices",
      "outputs": [
        {
          "internalType": "contract DeviceHub",
          "name": "",
          "type": "address"
        }
      ],
      "stateMutability": "view",
      "type": "function",
      "constant": true
    },
    {
      "inputs": [
        {
          "internalType": "uint256",
          "name": "tokenId",
          "type": "uint256"
        }
      ],
      "name": "getApproved",
      "outputs": [
        {
          "internalType": "address",
          "name": "",
          "type": "address"
        }
      ],
      "stateMutability": "view",
      "type": "function",
      "constant": true
    },
    {
      "inputs": [
        {
          "internalType": "address",
          "name": "owner",
          "type": "address"
        },
        {
          "internalType": "address",
          "name": "operator",
          "type": "address"
        }
      ],
      "name": "isApprovedForAll",
      "outputs": [
        {
          "internalType": "bool",
          "name": "",
          "type": "bool"
        }
      ],
      "stateMutability": "view",
      "type": "function",
      "constant": true
    },
    {
      "inputs": [],
      "name": "name",
      "outputs": [
        {
          "internalType": "string",
          "name": "",
          "type": "string"
        }
      ],
      "stateMutability": "view",
      "type": "function",
      "constant": true
    },
    {
      "inputs": [
        {
          "internalType": "uint256",
          "name": "tokenId",
          "type": "uint256"
        }
      ],
      "name": "ownerOf",
      "outputs": [
        {
          "internalType": "address",
          "name": "",
          "type": "address"
        }
      ],
      "stateMutability": "view",
      "type": "function",
      "constant": true
    },
    {
      "inputs": [
        {
          "internalType": "address",
          "name": "from",
          "type": "address"
        },
        {
          "internalType": "address",
          "name": "to",
          "type": "address"
        },
        {
          "internalType": "uint256",
          "name": "tokenId",
          "type": "uint256"
        }
      ],
      "name": "safeTransferFrom",
      "outputs": [],
      "stateMutability": "nonpayable",
      "type": "function"
    },
    {
      "inputs": [
        {
          "internalType": "address",
          "name": "from",
          "type": "address"
        },
        {
          "internalType": "address",
          "name": "to",
          "type": "address"
        },
        {
          "internalType": "uint256",
          "name": "tokenId",
          "type": "uint256"
        },
        {
          "internalType": "bytes",
          "name": "_data",
          "type": "bytes"
        }
      ],
      "name": "safeTransferFrom",
      "outputs": [],
      "stateMutability": "nonpayable",
      "type": "function"
    },
    {
      "inputs": [
        {
          "internalType": "address",
          "name": "operator",
          "type": "address"
        },
        {
          "internalType": "bool",
          "name": "approved",
          "type": "bool"
        }
      ],
      "name": "setApprovalForAll",
      "outputs": [],
      "stateMutability": "nonpayable",
      "type": "function"
    },
    {
      "inputs": [
        {
          "internalType": "bytes4",
          "name": "interfaceId",
          "type": "bytes4"
        }
      ],
      "name": "supportsInterface",
      "outputs": [
        {
          "internalType": "bool",
          "name": "",
          "type": "bool"
        }
      ],
      "stateMutability": "view",
      "type": "function",
      "constant": true
    },
    {
      "inputs": [],
      "name": "symbol",
      "outputs": [
        {
          "internalType": "string",
          "name": "",
          "type": "string"
        }
      ],
      "stateMutability": "view",
      "type": "function",
      "constant": true
    },
    {
      "inputs": [
        {
          "internalType": "uint256",
          "name": "index",
          "type": "uint256"
        }
      ],
      "name": "tokenByIndex",
      "outputs": [
        {
          "internalType": "uint256",
          "name": "",
          "type": "uint256"
        }
      ],
      "stateMutability": "view",
      "type": "function",
      "constant": true
    },
    {
      "inputs": [
        {
          "internalType": "address",
          "name": "owner",
          "type": "address"
        },
        {
          "internalType": "uint256",
          "name": "index",
          "type": "uint256"
        }
      ],
      "name": "tokenOfOwnerByIndex",
      "outputs": [
        {
          "internalType": "uint256",
          "name": "",
          "type": "uint256"
        }
      ],
      "stateMutability": "view",
      "type": "function",
      "constant": true
    },
    {
      "inputs": [
        {
          "internalType": "uint256",
          "name": "tokenId",
          "type": "uint256"
        }
      ],
      "name": "tokenURI",
      "outputs": [
        {
          "internalType": "string",
          "name": "",
          "type": "string"
        }
      ],
      "stateMutability": "view",
      "type": "function",
      "constant": true
    },
    {
      "inputs": [],
      "name": "totalSupply",
      "outputs": [
        {
          "internalType": "uint256",
          "name": "",
          "type": "uint256"
        }
      ],
      "stateMutability": "view",
      "type": "function",
      "constant": true
    },
    {
      "inputs": [
        {
          "internalType": "address",
          "name": "from",
          "type": "address"
        },
        {
          "internalType": "address",
          "name": "to",
          "type": "address"
        },
        {
          "internalType": "uint256",
          "name": "tokenId",
          "type": "uint256"
        }
      ],
      "name": "transferFrom",
      "outputs": [],
      "stateMutability": "nonpayable",
      "type": "function"
    },
    {
      "inputs": [
        {
          "internalType": "uint256",
          "name": "_duration",
          "type": "uint256"
        },
        {
          "internalType": "uint256",
          "name": "_devicesRequested",
          "type": "uint256"
        }
      ],
      "name": "mintTag",
      "outputs": [],
      "stateMutability": "payable",
      "type": "function",
      "payable": true
    },
    {
      "inputs": [
        {
          "internalType": "uint256",
          "name": "_devicesReturned",
          "type": "uint256"
        }
      ],
      "name": "burnTag",
      "outputs": [],
      "stateMutability": "nonpayable",
      "type": "function"
    }
  ],
  "bytecode": "0x60806040523480156200001157600080fd5b5060405162003840380380620038408339818101604052810190620000379190620001fc565b6040518060400160405280600981526020017f44657669636554616700000000000000000000000000000000000000000000008152506040518060400160405280600381526020017f54414700000000000000000000000000000000000000000000000000000000008152508160009080519060200190620000bb92919062000135565b508060019080519060200190620000d492919062000135565b50505080600d60006101000a81548173ffffffffffffffffffffffffffffffffffffffff021916908373ffffffffffffffffffffffffffffffffffffffff1602179055506611c37937e08000600b819055506000600c8190555050620002ef565b828054620001439062000270565b90600052602060002090601f016020900481019282620001675760008555620001b3565b82601f106200018257805160ff1916838001178555620001b3565b82800160010185558215620001b3579182015b82811115620001b257825182559160200191906001019062000195565b5b509050620001c29190620001c6565b5090565b5b80821115620001e1576000816000905550600101620001c7565b5090565b600081519050620001f681620002d5565b92915050565b6000602082840312156200020f57600080fd5b60006200021f84828501620001e5565b91505092915050565b6000620002358262000250565b9050919050565b6000620002498262000228565b9050919050565b600073ffffffffffffffffffffffffffffffffffffffff82169050919050565b600060028204905060018216806200028957607f821691505b60208210811415620002a0576200029f620002a6565b5b50919050565b7f4e487b7100000000000000000000000000000000000000000000000000000000600052602260045260246000fd5b620002e0816200023c565b8114620002ec57600080fd5b50565b61354180620002ff6000396000f3fe60806040526004361061011f5760003560e01c80636352211e116100a0578063b88d4fde11610064578063b88d4fde1461040b578063c30a4d4814610434578063c87b56dd1461045f578063e985e9c51461049c578063f1dfe60f146104d95761011f565b80636352211e1461031257806370a082311461034f57806395d89b411461038c5780639c2bbdea146103b7578063a22cb465146103e25761011f565b80631da087bb116100e75780631da087bb1461021d57806323b872dd146102465780632f745c591461026f57806342842e0e146102ac5780634f6ccce7146102d55761011f565b806301ffc9a71461012457806306fdde0314610161578063081812fc1461018c578063095ea7b3146101c957806318160ddd146101f2575b600080fd5b34801561013057600080fd5b5061014b60048036038101906101469190612569565b6104f5565b6040516101589190612e21565b60405180910390f35b34801561016d57600080fd5b5061017661056f565b6040516101839190612e57565b60405180910390f35b34801561019857600080fd5b506101b360048036038101906101ae91906125bb565b610601565b6040516101c09190612dba565b60405180910390f35b3480156101d557600080fd5b506101f060048036038101906101eb919061252d565b610686565b005b3480156101fe57600080fd5b5061020761079e565b60405161021491906130b9565b60405180910390f35b34801561022957600080fd5b50610244600480360381019061023f91906125bb565b6107ab565b005b34801561025257600080fd5b5061026d60048036038101906102689190612427565b6108a0565b005b34801561027b57600080fd5b506102966004803603810190610291919061252d565b610900565b6040516102a391906130b9565b60405180910390f35b3480156102b857600080fd5b506102d360048036038101906102ce9190612427565b6109a5565b005b3480156102e157600080fd5b506102fc60048036038101906102f791906125bb565b6109c5565b60405161030991906130b9565b60405180910390f35b34801561031e57600080fd5b50610339600480360381019061033491906125bb565b610a5c565b6040516103469190612dba565b60405180910390f35b34801561035b57600080fd5b50610376600480360381019061037191906123c2565b610b0e565b60405161038391906130b9565b60405180910390f35b34801561039857600080fd5b506103a1610bc6565b6040516103ae9190612e57565b60405180910390f35b3480156103c357600080fd5b506103cc610c58565b6040516103d991906130b9565b60405180910390f35b3480156103ee57600080fd5b50610409600480360381019061040491906124f1565b610c5e565b005b34801561041757600080fd5b50610432600480360381019061042d9190612476565b610c74565b005b34801561044057600080fd5b50610449610cd6565b6040516104569190612e3c565b60405180910390f35b34801561046b57600080fd5b50610486600480360381019061048191906125bb565b610cfc565b6040516104939190612e57565b60405180910390f35b3480156104a857600080fd5b506104c360048036038101906104be91906123eb565b610da3565b6040516104d09190612e21565b60405180910390f35b6104f360048036038101906104ee919061260d565b610e37565b005b60007f780e9d63000000000000000000000000000000000000000000000000000000007bffffffffffffffffffffffffffffffffffffffffffffffffffffffff1916827bffffffffffffffffffffffffffffffffffffffffffffffffffffffff1916148061056857506105678261105e565b5b9050919050565b60606000805461057e90613336565b80601f01602080910402602001604051908101604052809291908181526020018280546105aa90613336565b80156105f75780601f106105cc576101008083540402835291602001916105f7565b820191906000526020600020905b8154815290600101906020018083116105da57829003601f168201915b5050505050905090565b600061060c82611140565b61064b576040517f08c379a000000000000000000000000000000000000000000000000000000000815260040161064290612fb9565b60405180910390fd5b6004600083815260200190815260200160002060009054906101000a900473ffffffffffffffffffffffffffffffffffffffff169050919050565b600061069182610a5c565b90508073ffffffffffffffffffffffffffffffffffffffff168373ffffffffffffffffffffffffffffffffffffffff161415610702576040517f08c379a00000000000000000000000000000000000000000000000000000000081526004016106f990613019565b60405180910390fd5b8073ffffffffffffffffffffffffffffffffffffffff166107216111ac565b73ffffffffffffffffffffffffffffffffffffffff161480610750575061074f8161074a6111ac565b610da3565b5b61078f576040517f08c379a000000000000000000000000000000000000000000000000000000000815260040161078690612f39565b60405180910390fd5b61079983836111b4565b505050565b6000600880549050905090565b60006107b633610b0e565b9050600081116107c557600080fd5b60005b8181101561088257600d60009054906101000a900473ffffffffffffffffffffffffffffffffffffffff1673ffffffffffffffffffffffffffffffffffffffff1663031f585e336040518263ffffffff1660e01b815260040161082b9190612dba565b600060405180830381600087803b15801561084557600080fd5b505af1158015610859573d6000803e3d6000fd5b5050505061086f61086a3383610900565b61126d565b808061087a90613368565b9150506107c8565b5081600c60008282546108959190613228565b925050819055505050565b6108b16108ab6111ac565b8261137e565b6108f0576040517f08c379a00000000000000000000000000000000000000000000000000000000081526004016108e790613039565b60405180910390fd5b6108fb83838361145c565b505050565b600061090b83610b0e565b821061094c576040517f08c379a000000000000000000000000000000000000000000000000000000000815260040161094390612e79565b60405180910390fd5b600660008473ffffffffffffffffffffffffffffffffffffffff1673ffffffffffffffffffffffffffffffffffffffff168152602001908152602001600020600083815260200190815260200160002054905092915050565b6109c083838360405180602001604052806000815250610c74565b505050565b60006109cf61079e565b8210610a10576040517f08c379a0000000000000000000000000000000000000000000000000000000008152600401610a0790613099565b60405180910390fd5b60088281548110610a4a577f4e487b7100000000000000000000000000000000000000000000000000000000600052603260045260246000fd5b90600052602060002001549050919050565b6000806002600084815260200190815260200160002060009054906101000a900473ffffffffffffffffffffffffffffffffffffffff169050600073ffffffffffffffffffffffffffffffffffffffff168173ffffffffffffffffffffffffffffffffffffffff161415610b05576040517f08c379a0000000000000000000000000000000000000000000000000000000008152600401610afc90612f79565b60405180910390fd5b80915050919050565b60008073ffffffffffffffffffffffffffffffffffffffff168273ffffffffffffffffffffffffffffffffffffffff161415610b7f576040517f08c379a0000000000000000000000000000000000000000000000000000000008152600401610b7690612f59565b60405180910390fd5b600360008373ffffffffffffffffffffffffffffffffffffffff1673ffffffffffffffffffffffffffffffffffffffff168152602001908152602001600020549050919050565b606060018054610bd590613336565b80601f0160208091040260200160405190810160405280929190818152602001828054610c0190613336565b8015610c4e5780601f10610c2357610100808354040283529160200191610c4e565b820191906000526020600020905b815481529060010190602001808311610c3157829003601f168201915b5050505050905090565b600c5481565b610c70610c696111ac565b83836116b8565b5050565b610c85610c7f6111ac565b8361137e565b610cc4576040517f08c379a0000000000000000000000000000000000000000000000000000000008152600401610cbb90613039565b60405180910390fd5b610cd084848484611825565b50505050565b600d60009054906101000a900473ffffffffffffffffffffffffffffffffffffffff1681565b6060610d0782611140565b610d46576040517f08c379a0000000000000000000000000000000000000000000000000000000008152600401610d3d90612ff9565b60405180910390fd5b6000610d50611881565b90506000815111610d705760405180602001604052806000815250610d9b565b80610d7a84611898565b604051602001610d8b929190612d96565b6040516020818303038152906040525b915050919050565b6000600560008473ffffffffffffffffffffffffffffffffffffffff1673ffffffffffffffffffffffffffffffffffffffff16815260200190815260200160002060008373ffffffffffffffffffffffffffffffffffffffff1673ffffffffffffffffffffffffffffffffffffffff16815260200190815260200160002060009054906101000a900460ff16905092915050565b600d60009054906101000a900473ffffffffffffffffffffffffffffffffffffffff1673ffffffffffffffffffffffffffffffffffffffff166337a0701a6040518163ffffffff1660e01b815260040160206040518083038186803b158015610e9f57600080fd5b505afa158015610eb3573d6000803e3d6000fd5b505050506040513d601f19601f82011682018060405250810190610ed791906125e4565b81600c54610ee591906131a1565b1115610f26576040517f08c379a0000000000000000000000000000000000000000000000000000000008152600401610f1d90613079565b60405180910390fd5b600b543414610f6a576040517f08c379a0000000000000000000000000000000000000000000000000000000008152600401610f6190613059565b60405180910390fd5b6000339050610f79600a611a45565b60005b8281101561102657600d60009054906101000a900473ffffffffffffffffffffffffffffffffffffffff1673ffffffffffffffffffffffffffffffffffffffff1663a8becf4534866040518363ffffffff1660e01b8152600401610fe19291906130d4565b600060405180830381600087803b158015610ffb57600080fd5b505af115801561100f573d6000803e3d6000fd5b50505050808061101e90613368565b915050610f7c565b506000611033600a611a5b565b905061103f8282611a69565b82600c600082825461105191906131a1565b9250508190555050505050565b60007f80ac58cd000000000000000000000000000000000000000000000000000000007bffffffffffffffffffffffffffffffffffffffffffffffffffffffff1916827bffffffffffffffffffffffffffffffffffffffffffffffffffffffff1916148061112957507f5b5e139f000000000000000000000000000000000000000000000000000000007bffffffffffffffffffffffffffffffffffffffffffffffffffffffff1916827bffffffffffffffffffffffffffffffffffffffffffffffffffffffff1916145b80611139575061113882611c37565b5b9050919050565b60008073ffffffffffffffffffffffffffffffffffffffff166002600084815260200190815260200160002060009054906101000a900473ffffffffffffffffffffffffffffffffffffffff1673ffffffffffffffffffffffffffffffffffffffff1614159050919050565b600033905090565b816004600083815260200190815260200160002060006101000a81548173ffffffffffffffffffffffffffffffffffffffff021916908373ffffffffffffffffffffffffffffffffffffffff160217905550808273ffffffffffffffffffffffffffffffffffffffff1661122783610a5c565b73ffffffffffffffffffffffffffffffffffffffff167f8c5be1e5ebec7d5bd14f71427d1e84f3dd0314c0f7b2291e5b200ac8c7c3b92560405160405180910390a45050565b600061127882610a5c565b905061128681600084611ca1565b6112916000836111b4565b6001600360008373ffffffffffffffffffffffffffffffffffffffff1673ffffffffffffffffffffffffffffffffffffffff16815260200190815260200160002060008282546112e19190613228565b925050819055506002600083815260200190815260200160002060006101000a81549073ffffffffffffffffffffffffffffffffffffffff021916905581600073ffffffffffffffffffffffffffffffffffffffff168273ffffffffffffffffffffffffffffffffffffffff167fddf252ad1be2c89b69c2b068fc378daa952ba7f163c4a11628f55a4df523b3ef60405160405180910390a45050565b600061138982611140565b6113c8576040517f08c379a00000000000000000000000000000000000000000000000000000000081526004016113bf90612f19565b60405180910390fd5b60006113d383610a5c565b90508073ffffffffffffffffffffffffffffffffffffffff168473ffffffffffffffffffffffffffffffffffffffff16148061144257508373ffffffffffffffffffffffffffffffffffffffff1661142a84610601565b73ffffffffffffffffffffffffffffffffffffffff16145b8061145357506114528185610da3565b5b91505092915050565b8273ffffffffffffffffffffffffffffffffffffffff1661147c82610a5c565b73ffffffffffffffffffffffffffffffffffffffff16146114d2576040517f08c379a00000000000000000000000000000000000000000000000000000000081526004016114c990612fd9565b60405180910390fd5b600073ffffffffffffffffffffffffffffffffffffffff168273ffffffffffffffffffffffffffffffffffffffff161415611542576040517f08c379a000000000000000000000000000000000000000000000000000000000815260040161153990612ed9565b60405180910390fd5b61154d838383611ca1565b6115586000826111b4565b6001600360008573ffffffffffffffffffffffffffffffffffffffff1673ffffffffffffffffffffffffffffffffffffffff16815260200190815260200160002060008282546115a89190613228565b925050819055506001600360008473ffffffffffffffffffffffffffffffffffffffff1673ffffffffffffffffffffffffffffffffffffffff16815260200190815260200160002060008282546115ff91906131a1565b92505081905550816002600083815260200190815260200160002060006101000a81548173ffffffffffffffffffffffffffffffffffffffff021916908373ffffffffffffffffffffffffffffffffffffffff160217905550808273ffffffffffffffffffffffffffffffffffffffff168473ffffffffffffffffffffffffffffffffffffffff167fddf252ad1be2c89b69c2b068fc378daa952ba7f163c4a11628f55a4df523b3ef60405160405180910390a4505050565b8173ffffffffffffffffffffffffffffffffffffffff168373ffffffffffffffffffffffffffffffffffffffff161415611727576040517f08c379a000000000000000000000000000000000000000000000000000000000815260040161171e90612ef9565b60405180910390fd5b80600560008573ffffffffffffffffffffffffffffffffffffffff1673ffffffffffffffffffffffffffffffffffffffff16815260200190815260200160002060008473ffffffffffffffffffffffffffffffffffffffff1673ffffffffffffffffffffffffffffffffffffffff16815260200190815260200160002060006101000a81548160ff0219169083151502179055508173ffffffffffffffffffffffffffffffffffffffff168373ffffffffffffffffffffffffffffffffffffffff167f17307eab39ab6107e8899845ad3d59bd9653f200f220920489ca2b5937696c31836040516118189190612e21565b60405180910390a3505050565b61183084848461145c565b61183c84848484611db5565b61187b576040517f08c379a000000000000000000000000000000000000000000000000000000000815260040161187290612e99565b60405180910390fd5b50505050565b606060405180602001604052806000815250905090565b606060008214156118e0576040518060400160405280600181526020017f30000000000000000000000000000000000000000000000000000000000000008152509050611a40565b600082905060005b600082146119125780806118fb90613368565b915050600a8261190b91906131f7565b91506118e8565b60008167ffffffffffffffff811115611954577f4e487b7100000000000000000000000000000000000000000000000000000000600052604160045260246000fd5b6040519080825280601f01601f1916602001820160405280156119865781602001600182028036833780820191505090505b5090505b60008514611a395760018261199f9190613228565b9150600a856119ae91906133b1565b60306119ba91906131a1565b60f81b8183815181106119f6577f4e487b7100000000000000000000000000000000000000000000000000000000600052603260045260246000fd5b60200101907effffffffffffffffffffffffffffffffffffffffffffffffffffffffffffff1916908160001a905350600a85611a3291906131f7565b945061198a565b8093505050505b919050565b6001816000016000828254019250508190555050565b600081600001549050919050565b600073ffffffffffffffffffffffffffffffffffffffff168273ffffffffffffffffffffffffffffffffffffffff161415611ad9576040517f08c379a0000000000000000000000000000000000000000000000000000000008152600401611ad090612f99565b60405180910390fd5b611ae281611140565b15611b22576040517f08c379a0000000000000000000000000000000000000000000000000000000008152600401611b1990612eb9565b60405180910390fd5b611b2e60008383611ca1565b6001600360008473ffffffffffffffffffffffffffffffffffffffff1673ffffffffffffffffffffffffffffffffffffffff1681526020019081526020016000206000828254611b7e91906131a1565b92505081905550816002600083815260200190815260200160002060006101000a81548173ffffffffffffffffffffffffffffffffffffffff021916908373ffffffffffffffffffffffffffffffffffffffff160217905550808273ffffffffffffffffffffffffffffffffffffffff16600073ffffffffffffffffffffffffffffffffffffffff167fddf252ad1be2c89b69c2b068fc378daa952ba7f163c4a11628f55a4df523b3ef60405160405180910390a45050565b60007f01ffc9a7000000000000000000000000000000000000000000000000000000007bffffffffffffffffffffffffffffffffffffffffffffffffffffffff1916827bffffffffffffffffffffffffffffffffffffffffffffffffffffffff1916149050919050565b611cac838383611f4c565b600073ffffffffffffffffffffffffffffffffffffffff168373ffffffffffffffffffffffffffffffffffffffff161415611cef57611cea81611f51565b611d2e565b8173ffffffffffffffffffffffffffffffffffffffff168373ffffffffffffffffffffffffffffffffffffffff1614611d2d57611d2c8382611f9a565b5b5b600073ffffffffffffffffffffffffffffffffffffffff168273ffffffffffffffffffffffffffffffffffffffff161415611d7157611d6c81612107565b611db0565b8273ffffffffffffffffffffffffffffffffffffffff168273ffffffffffffffffffffffffffffffffffffffff1614611daf57611dae828261224a565b5b5b505050565b6000611dd68473ffffffffffffffffffffffffffffffffffffffff166122c9565b15611f3f578373ffffffffffffffffffffffffffffffffffffffff1663150b7a02611dff6111ac565b8786866040518563ffffffff1660e01b8152600401611e219493929190612dd5565b602060405180830381600087803b158015611e3b57600080fd5b505af1925050508015611e6c57506040513d601f19601f82011682018060405250810190611e699190612592565b60015b611eef573d8060008114611e9c576040519150601f19603f3d011682016040523d82523d6000602084013e611ea1565b606091505b50600081511415611ee7576040517f08c379a0000000000000000000000000000000000000000000000000000000008152600401611ede90612e99565b60405180910390fd5b805181602001fd5b63150b7a0260e01b7bffffffffffffffffffffffffffffffffffffffffffffffffffffffff1916817bffffffffffffffffffffffffffffffffffffffffffffffffffffffff191614915050611f44565b600190505b949350505050565b505050565b6008805490506009600083815260200190815260200160002081905550600881908060018154018082558091505060019003906000526020600020016000909190919091505550565b60006001611fa784610b0e565b611fb19190613228565b9050600060076000848152602001908152602001600020549050818114612096576000600660008673ffffffffffffffffffffffffffffffffffffffff1673ffffffffffffffffffffffffffffffffffffffff168152602001908152602001600020600084815260200190815260200160002054905080600660008773ffffffffffffffffffffffffffffffffffffffff1673ffffffffffffffffffffffffffffffffffffffff168152602001908152602001600020600084815260200190815260200160002081905550816007600083815260200190815260200160002081905550505b6007600084815260200190815260200160002060009055600660008573ffffffffffffffffffffffffffffffffffffffff1673ffffffffffffffffffffffffffffffffffffffff16815260200190815260200160002060008381526020019081526020016000206000905550505050565b6000600160088054905061211b9190613228565b9050600060096000848152602001908152602001600020549050600060088381548110612171577f4e487b7100000000000000000000000000000000000000000000000000000000600052603260045260246000fd5b9060005260206000200154905080600883815481106121b9577f4e487b7100000000000000000000000000000000000000000000000000000000600052603260045260246000fd5b90600052602060002001819055508160096000838152602001908152602001600020819055506009600085815260200190815260200160002060009055600880548061222e577f4e487b7100000000000000000000000000000000000000000000000000000000600052603160045260246000fd5b6001900381819060005260206000200160009055905550505050565b600061225583610b0e565b905081600660008573ffffffffffffffffffffffffffffffffffffffff1673ffffffffffffffffffffffffffffffffffffffff168152602001908152602001600020600083815260200190815260200160002081905550806007600084815260200190815260200160002081905550505050565b600080823b905060008111915050919050565b60006122ef6122ea8461312e565b6130fd565b90508281526020810184848401111561230757600080fd5b6123128482856132f4565b509392505050565b600081359050612329816134af565b92915050565b60008135905061233e816134c6565b92915050565b600081359050612353816134dd565b92915050565b600081519050612368816134dd565b92915050565b600082601f83011261237f57600080fd5b813561238f8482602086016122dc565b91505092915050565b6000813590506123a7816134f4565b92915050565b6000815190506123bc816134f4565b92915050565b6000602082840312156123d457600080fd5b60006123e28482850161231a565b91505092915050565b600080604083850312156123fe57600080fd5b600061240c8582860161231a565b925050602061241d8582860161231a565b9150509250929050565b60008060006060848603121561243c57600080fd5b600061244a8682870161231a565b935050602061245b8682870161231a565b925050604061246c86828701612398565b9150509250925092565b6000806000806080858703121561248c57600080fd5b600061249a8782880161231a565b94505060206124ab8782880161231a565b93505060406124bc87828801612398565b925050606085013567ffffffffffffffff8111156124d957600080fd5b6124e58782880161236e565b91505092959194509250565b6000806040838503121561250457600080fd5b60006125128582860161231a565b92505060206125238582860161232f565b9150509250929050565b6000806040838503121561254057600080fd5b600061254e8582860161231a565b925050602061255f85828601612398565b9150509250929050565b60006020828403121561257b57600080fd5b600061258984828501612344565b91505092915050565b6000602082840312156125a457600080fd5b60006125b284828501612359565b91505092915050565b6000602082840312156125cd57600080fd5b60006125db84828501612398565b91505092915050565b6000602082840312156125f657600080fd5b6000612604848285016123ad565b91505092915050565b6000806040838503121561262057600080fd5b600061262e85828601612398565b925050602061263f85828601612398565b9150509250929050565b6126528161325c565b82525050565b6126618161326e565b82525050565b60006126728261315e565b61267c8185613174565b935061268c818560208601613303565b6126958161349e565b840191505092915050565b6126a9816132d0565b82525050565b60006126ba82613169565b6126c48185613185565b93506126d4818560208601613303565b6126dd8161349e565b840191505092915050565b60006126f382613169565b6126fd8185613196565b935061270d818560208601613303565b80840191505092915050565b6000612726602b83613185565b91507f455243373231456e756d657261626c653a206f776e657220696e646578206f7560008301527f74206f6620626f756e64730000000000000000000000000000000000000000006020830152604082019050919050565b600061278c603283613185565b91507f4552433732313a207472616e7366657220746f206e6f6e20455243373231526560008301527f63656976657220696d706c656d656e74657200000000000000000000000000006020830152604082019050919050565b60006127f2601c83613185565b91507f4552433732313a20746f6b656e20616c7265616479206d696e746564000000006000830152602082019050919050565b6000612832602483613185565b91507f4552433732313a207472616e7366657220746f20746865207a65726f2061646460008301527f72657373000000000000000000000000000000000000000000000000000000006020830152604082019050919050565b6000612898601983613185565b91507f4552433732313a20617070726f766520746f2063616c6c6572000000000000006000830152602082019050919050565b60006128d8602c83613185565b91507f4552433732313a206f70657261746f7220717565727920666f72206e6f6e657860008301527f697374656e7420746f6b656e00000000000000000000000000000000000000006020830152604082019050919050565b600061293e603883613185565b91507f4552433732313a20617070726f76652063616c6c6572206973206e6f74206f7760008301527f6e6572206e6f7220617070726f76656420666f7220616c6c00000000000000006020830152604082019050919050565b60006129a4602a83613185565b91507f4552433732313a2062616c616e636520717565727920666f7220746865207a6560008301527f726f2061646472657373000000000000000000000000000000000000000000006020830152604082019050919050565b6000612a0a602983613185565b91507f4552433732313a206f776e657220717565727920666f72206e6f6e657869737460008301527f656e7420746f6b656e00000000000000000000000000000000000000000000006020830152604082019050919050565b6000612a70602083613185565b91507f4552433732313a206d696e7420746f20746865207a65726f20616464726573736000830152602082019050919050565b6000612ab0602c83613185565b91507f4552433732313a20617070726f76656420717565727920666f72206e6f6e657860008301527f697374656e7420746f6b656e00000000000000000000000000000000000000006020830152604082019050919050565b6000612b16602983613185565b91507f4552433732313a207472616e73666572206f6620746f6b656e2074686174206960008301527f73206e6f74206f776e00000000000000000000000000000000000000000000006020830152604082019050919050565b6000612b7c602f83613185565b91507f4552433732314d657461646174613a2055524920717565727920666f72206e6f60008301527f6e6578697374656e7420746f6b656e00000000000000000000000000000000006020830152604082019050919050565b6000612be2602183613185565b91507f4552433732313a20617070726f76616c20746f2063757272656e74206f776e6560008301527f72000000000000000000000000000000000000000000000000000000000000006020830152604082019050919050565b6000612c48603183613185565b91507f4552433732313a207472616e736665722063616c6c6572206973206e6f74206f60008301527f776e6572206e6f7220617070726f7665640000000000000000000000000000006020830152604082019050919050565b6000612cae601283613185565b91507f436f6c6c61746572616c204e6f74204d657400000000000000000000000000006000830152602082019050919050565b6000612cee601483613185565b91507f43616e27742070726f636573736573206c6f616e0000000000000000000000006000830152602082019050919050565b6000612d2e602c83613185565b91507f455243373231456e756d657261626c653a20676c6f62616c20696e646578206f60008301527f7574206f6620626f756e647300000000000000000000000000000000000000006020830152604082019050919050565b612d90816132c6565b82525050565b6000612da282856126e8565b9150612dae82846126e8565b91508190509392505050565b6000602082019050612dcf6000830184612649565b92915050565b6000608082019050612dea6000830187612649565b612df76020830186612649565b612e046040830185612d87565b8181036060830152612e168184612667565b905095945050505050565b6000602082019050612e366000830184612658565b92915050565b6000602082019050612e5160008301846126a0565b92915050565b60006020820190508181036000830152612e7181846126af565b905092915050565b60006020820190508181036000830152612e9281612719565b9050919050565b60006020820190508181036000830152612eb28161277f565b9050919050565b60006020820190508181036000830152612ed2816127e5565b9050919050565b60006020820190508181036000830152612ef281612825565b9050919050565b60006020820190508181036000830152612f128161288b565b9050919050565b60006020820190508181036000830152612f32816128cb565b9050919050565b60006020820190508181036000830152612f5281612931565b9050919050565b60006020820190508181036000830152612f7281612997565b9050919050565b60006020820190508181036000830152612f92816129fd565b9050919050565b60006020820190508181036000830152612fb281612a63565b9050919050565b60006020820190508181036000830152612fd281612aa3565b9050919050565b60006020820190508181036000830152612ff281612b09565b9050919050565b6000602082019050818103600083015261301281612b6f565b9050919050565b6000602082019050818103600083015261303281612bd5565b9050919050565b6000602082019050818103600083015261305281612c3b565b9050919050565b6000602082019050818103600083015261307281612ca1565b9050919050565b6000602082019050818103600083015261309281612ce1565b9050919050565b600060208201905081810360008301526130b281612d21565b9050919050565b60006020820190506130ce6000830184612d87565b92915050565b60006040820190506130e96000830185612d87565b6130f66020830184612d87565b9392505050565b6000604051905081810181811067ffffffffffffffff821117156131245761312361346f565b5b8060405250919050565b600067ffffffffffffffff8211156131495761314861346f565b5b601f19601f8301169050602081019050919050565b600081519050919050565b600081519050919050565b600082825260208201905092915050565b600082825260208201905092915050565b600081905092915050565b60006131ac826132c6565b91506131b7836132c6565b9250827fffffffffffffffffffffffffffffffffffffffffffffffffffffffffffffffff038211156131ec576131eb6133e2565b5b828201905092915050565b6000613202826132c6565b915061320d836132c6565b92508261321d5761321c613411565b5b828204905092915050565b6000613233826132c6565b915061323e836132c6565b925082821015613251576132506133e2565b5b828203905092915050565b6000613267826132a6565b9050919050565b60008115159050919050565b60007fffffffff0000000000000000000000000000000000000000000000000000000082169050919050565b600073ffffffffffffffffffffffffffffffffffffffff82169050919050565b6000819050919050565b60006132db826132e2565b9050919050565b60006132ed826132a6565b9050919050565b82818337600083830152505050565b60005b83811015613321578082015181840152602081019050613306565b83811115613330576000848401525b50505050565b6000600282049050600182168061334e57607f821691505b6020821081141561336257613361613440565b5b50919050565b6000613373826132c6565b91507fffffffffffffffffffffffffffffffffffffffffffffffffffffffffffffffff8214156133a6576133a56133e2565b5b600182019050919050565b60006133bc826132c6565b91506133c7836132c6565b9250826133d7576133d6613411565b5b828206905092915050565b7f4e487b7100000000000000000000000000000000000000000000000000000000600052601160045260246000fd5b7f4e487b7100000000000000000000000000000000000000000000000000000000600052601260045260246000fd5b7f4e487b7100000000000000000000000000000000000000000000000000000000600052602260045260246000fd5b7f4e487b7100000000000000000000000000000000000000000000000000000000600052604160045260246000fd5b6000601f19601f8301169050919050565b6134b88161325c565b81146134c357600080fd5b50565b6134cf8161326e565b81146134da57600080fd5b50565b6134e68161327a565b81146134f157600080fd5b50565b6134fd816132c6565b811461350857600080fd5b5056fea2646970667358221220966098cc05d70911bd50cc8a2ee83c042135a9abcb5decbf77f1b39d26b5729d64736f6c63430008000033",
  "immutableReferences": {},
  "source": "// SPDX-License-Identifier: MIT\r\npragma solidity ^0.8.0;\r\nimport \"../node_modules/@openzeppelin/contracts/token/ERC721/extensions/ERC721Enumerable.sol\";\r\nimport \"../node_modules/@openzeppelin/contracts/utils/Counters.sol\";\r\nimport \"../contracts/DeviceHub.sol\";\r\n\r\ncontract DeviceTag is ERC721Enumerable {\r\n\r\n    using Counters for Counters.Counter;\r\n    Counters.Counter private _tokenIds;\r\n    uint256 private INSURANCE_FEE;\r\n    uint256 public LoanCount;\r\n    \r\n    \r\n    DeviceHub public devices;\r\n    constructor(DeviceHub _devices) public ERC721(\"DeviceTag\", \"TAG\") {\r\n        devices = _devices;\r\n        INSURANCE_FEE = 0.005 ether;\r\n        LoanCount= 0;\r\n    }\r\n\r\n    function mintTag(uint _duration, uint _devicesRequested) public payable {\r\n\r\n        require(LoanCount + _devicesRequested <= devices.getDeviceCount(),\"Can't processes loan\");\r\n        require(msg.value == INSURANCE_FEE, \"Collateral Not Met\");\r\n\r\n        address _to = msg.sender;\r\n        _tokenIds.increment();\r\n        \r\n        for(uint i = 0; i < _devicesRequested; i++) {\r\n            devices.requestDeviceLoan(msg.value, _duration);\r\n        }\r\n        \r\n        \r\n        uint256 id = _tokenIds.current();\r\n        _mint(_to, id);\r\n        LoanCount += _devicesRequested;\r\n        \r\n    }\r\n\r\n    function burnTag(uint _devicesReturned) public {\r\n        \r\n         uint tagCount = balanceOf(msg.sender);\r\n         require(tagCount > 0);\r\n        \r\n         for(uint i = 0; i < tagCount; i++) {\r\n                devices.redeemDeviceLoan(msg.sender);\r\n               _burn(tokenOfOwnerByIndex(msg.sender, i)); \r\n         }\r\n         LoanCount -= _devicesReturned;\r\n\r\n    }\r\n\r\n}",
  "sourcePath": "C:/Users/JJsse/Documents/HOME DIRECTORY/Portfolio-Projects/NFT-IoT Platform/backend/contracts/DeviceTag.sol",
  "compiler": {
    "name": "solc",
    "version": "0.8.0+commit.c7dfd78e.Emscripten.clang"
  },
  "schemaVersion": "3.3.4",
  "updatedAt": "2022-01-05T17:47:25.541Z",
  "networkType": "ethereum",
  "devdoc": {
    "kind": "dev",
    "methods": {
      "approve(address,uint256)": {
        "details": "See {IERC721-approve}."
      },
      "balanceOf(address)": {
        "details": "See {IERC721-balanceOf}."
      },
      "getApproved(uint256)": {
        "details": "See {IERC721-getApproved}."
      },
      "isApprovedForAll(address,address)": {
        "details": "See {IERC721-isApprovedForAll}."
      },
      "name()": {
        "details": "See {IERC721Metadata-name}."
      },
      "ownerOf(uint256)": {
        "details": "See {IERC721-ownerOf}."
      },
      "safeTransferFrom(address,address,uint256)": {
        "details": "See {IERC721-safeTransferFrom}."
      },
      "safeTransferFrom(address,address,uint256,bytes)": {
        "details": "See {IERC721-safeTransferFrom}."
      },
      "setApprovalForAll(address,bool)": {
        "details": "See {IERC721-setApprovalForAll}."
      },
      "supportsInterface(bytes4)": {
        "details": "See {IERC165-supportsInterface}."
      },
      "symbol()": {
        "details": "See {IERC721Metadata-symbol}."
      },
      "tokenByIndex(uint256)": {
        "details": "See {IERC721Enumerable-tokenByIndex}."
      },
      "tokenOfOwnerByIndex(address,uint256)": {
        "details": "See {IERC721Enumerable-tokenOfOwnerByIndex}."
      },
      "tokenURI(uint256)": {
        "details": "See {IERC721Metadata-tokenURI}."
      },
      "totalSupply()": {
        "details": "See {IERC721Enumerable-totalSupply}."
      },
      "transferFrom(address,address,uint256)": {
        "details": "See {IERC721-transferFrom}."
      }
    },
    "version": 1
  },
  "userdoc": {
    "kind": "user",
    "methods": {},
    "version": 1
  }
}